:100000000C9462000C948A000C948A000C948A0070
:100010000C948A000C948A000C948A000C948A0038
:100020000C948A000C948A000C948A000C948A0028
:100030000C948A000C948A000C948A000C948A0018
:100040000C946C030C948A000C948A000C948A0023
:100050000C948A000C948A000C948A000C948A00F8
:100060000C948A000C948A000000000024002700F1
:100070002A0000000000250028002B0000000000DE
:1000800023002600290004040404040404040202DA
:100090000202020203030303030301020408102007
:1000A0004080010204081020010204081020000012
:1000B0000008000201000003040700000000000027
:1000C0000000990511241FBECFEFD8E0DEBFCDBFE1
:1000D00011E0A0E0B1E0E8E5FFE002C005900D927C
:1000E000AA37B107D9F721E0AAE7B1E001C01D9214
:1000F000AB39B207E1F710E0C2E6D0E004C02197C7
:10010000FE010E94A407C136D107C9F70E94B603B9
:100110000C94AA070C940000AF92BF92CF92DF928A
:10012000EF92FF920F931F93CF93DF936C017B01AC
:100130008B01040F151FEB015E01AE18BF08C0173D
:10014000D10759F06991D601ED91FC910190F081B0
:10015000E02DC6010995892B79F7C501DF91CF9173
:100160001F910F91FF90EF90DF90CF90BF90AF90D5
:100170000895833081F028F4813099F08230A9F01D
:1001800008958730A9F08830C9F08430B1F48091A7
:1001900080008F7D03C0809180008F7780938000E6
:1001A000089584B58F7784BD089584B58F7DFBCF86
:1001B0008091B0008F778093B00008958091B00057
:1001C0008F7DF9CFCF93DF93282F30E0F901E255EF
:1001D000FF4F8491F901E656FF4FD491F901EA5798
:1001E000FF4FC491CC23A1F081110E94B900EC2FE4
:1001F000F0E0EE0FFF1FE458FF4FA591B491EC9192
:10020000ED2381E090E009F480E0DF91CF91089543
:1002100080E090E0FACF1F93CF93DF93282F30E058
:10022000F901E255FF4F8491F901E656FF4FD49151
:10023000F901EA57FF4FC491CC23A9F0162F811181
:100240000E94B900EC2FF0E0EE0FFF1FEE58FF4FB9
:10025000A591B4918FB7F894EC91111108C0D09585
:10026000DE23DC938FBFDF91CF911F910895DE2BAA
:10027000F8CFCF93DF9390E0FC01E656FF4F249137
:100280008A579F4FFC0184918823D1F090E0880F1A
:10029000991FFC01E859FF4FA591B491FC01EE585C
:1002A000FF4FC591D49161110EC09FB7F8948C9106
:1002B000E22FE0958E238C932881E223E8839FBF71
:1002C000DF91CF9108958FB7F894EC91E22BEC93E6
:1002D0008FBFF6CF3FB7F89480917F019091800156
:1002E000A0918101B091820126B5A89B05C02F3F46
:1002F00019F00196A11DB11D3FBFBA2FA92F982F4C
:100300008827BC01CD01620F711D811D911D42E046
:10031000660F771F881F991F4A95D1F708958F920E
:100320009F92AF92BF92CF92DF92EF92FF924B01DA
:100330005C010E946A016B017C010E946A016C19D8
:100340007D098E099F09683E734081059105A8F3D8
:1003500021E0821A9108A108B10888EEC80E83E056
:10036000D81EE11CF11C81149104A104B10429F7E9
:10037000FF90EF90DF90CF90BF90AF909F908F90C5
:100380000895089590E080E00895FC010190002018
:10039000E9F73197AF01481B590BBC0183E891E0A5
:1003A0000C948C008F929F92AF92BF920F931F93E9
:1003B000CF93DF93CDB7DEB7A1970FB6F894DEBF2A
:1003C0000FBECDBF19A2423008F44AE08E010F5D86
:1003D0001F4F842E912CB12CA12CA50194010E94B9
:1003E0008207E62FB901CA01EA30F4F4E05DD801D2
:1003F000EE938D01232B242B252B79F790E080E0C1
:10040000109719F0CD010E94C501A1960FB6F8947E
:10041000DEBF0FBECDBFDF91CF911F910F91BF9077
:10042000AF909F908F900895E95CE1CFCF93DF93D9
:10043000EC0160E08E810E940B0161E08E810E94E0
:100440000B0160E08E810E940B018BE891E0019727
:10045000F1F7DF91CF910895CF92DF92EF92FF9263
:100460000F931F93CF93DF936C017C0187E0E80E1D
:10047000F11CD0E0C0E0062F10E0B8010C2E02C045
:10048000759567950A94E2F76170F70181917F0194
:100490000E940B012196C430D10579F7C601DF9186
:1004A000CF911F910F91FF90EF90DF90CF900C9420
:1004B0001602CF92DF92EF92FF920F931F93CF938A
:1004C000DF93EC01F62E642F8C810E940B018D814D
:1004D0008F3F19F060E00E940B010F2D10E08F8517
:1004E00084FF25C06E0187E0C80ED11CF12CE12CE1
:1004F000B8010E2C02C0759567950A94E2F76170F9
:10050000F60181916F010E940B01FFEFEF1AFF0AC4
:1005100088E0E816F10461F7CE01DF91CF911F91D9
:100520000F91FF90EF90DF90CF900C941602B801DE
:1005300084E0759567958A95E1F7CE010E942C02BB
:100540006F2DCE01DF91CF911F910F91FF90EF9012
:10055000DF90CF900C942C0240E0682F83E891E06C
:100560000C945902CF93DF93613029F0909192015E
:10057000986090939201609396011092970190E495
:100580009093980180939901805C80939A0161E037
:10059000809187010E943901809188018F3F19F075
:1005A00061E00E94390161E0809189010E94390176
:1005B000C3E8D1E09E01235831408091920184FD2F
:1005C0000BC084E090E021962817390744F461E0DD
:1005D0008E810E943901EECF88E090E0F4CF8BE36A
:1005E0009DE00197F1F760E0809187010E940B0187
:1005F00060E0809189010E940B01809188018F3F0A
:1006000019F060E00E940B018091920184FD39C0D5
:1006100063E083E891E00E942C02CBE4D6E4CE01B3
:100620000197F1F763E083E891E00E942C022197A3
:10063000F1F763E083E891E00E942C0283E592E009
:100640000197F1F762E083E891E00E942C0280912B
:10065000920180620E94AC0284E0809393018CE05E
:100660000E94AC0281E00E94AC028BE39FE1019703
:10067000F1F782E08093940186E0DF91CF910C94B2
:10068000AC0280620E94AC028BE496E40197F1F721
:100690008091920180620E94AC0283E592E0019712
:1006A000F1F78091920180620E94AC02D0CF9091CC
:1006B0009601691710F06FEF690FE62FF0E0ED5724
:1006C000FE4F9489890F80680C94AC0241E00E942F
:1006D000590281E090E008951F920F920FB60F9299
:1006E00011242F933F938F939F93AF93BF93809148
:1006F0007B0190917C01A0917D01B0917E013091B0
:100700007A0123E0230F2D3758F50196A11DB11D65
:1007100020937A0180937B0190937C01A0937D01CB
:10072000B0937E0180917F0190918001A091810121
:10073000B09182010196A11DB11D80937F0190931C
:100740008001A0938101B0938201BF91AF919F91ED
:100750008F913F912F910F900FBE0F901F90189582
:1007600026E8230F0296A11DB11DD2CF789484B53F
:10077000826084BD84B5816084BD85B5826085BD9D
:1007800085B5816085BD80916E00816080936E002B
:10079000109281008091810082608093810080911D
:1007A00081008160809381008091800081608093CE
:1007B00080008091B10084608093B1008091B0008E
:1007C00081608093B00080917A00846080937A0089
:1007D00080917A00826080937A0080917A008160B3
:1007E00080937A0080917A00806880937A001092DA
:1007F000C10061E08AE00E94390161E08BE00E9463
:10080000390161E08CE00E94390160E083E00E94E0
:10081000390160E082E00E94390161E083E00E94DA
:100820000B0161E082E00E940B0164E084E10E9420
:10083000B2028EE091E00E94C50161E080E00E947A
:10084000570385E291E00E94C50162E080E00E94CA
:10085000570386E391E00E94C50163E082E00E94B5
:10086000570386E491E00E94C50161E08BE00E949D
:100870000B0160E08AE00E940B0160E08CE00E94C6
:100880000B0160ED77E080E090E00E948F0110E4C2
:10089000C0E0D0E010937C0080917A008064809367
:1008A0007A0080917A0086FDFCCF8091780060917B
:1008B0007900762F682F072E000C880B990B0E9469
:1008C0005B0620E030E040EA5BE30E94100720E096
:1008D00030E048EC52E40E9410076B017C0160E0BC
:1008E00080E00E9457038FE491E00E94C501A701B8
:1008F0009601C701B6010E947D07882309F47AC0DA
:100900008CE591E00E94C50182E00E94E200892B03
:1009100061F48091000190910101181619062CF4E0
:100920000197909301018093000183E00E94E2000F
:10093000892B61F480910001909101018639910524
:100940002CF40196909301018093000161E080E016
:100950000E94570388E691E00E94C5018090000143
:1009600090900101092C000CAA08BB084AE0C501BF
:10097000B401B7FE0EC041E06DE283E891E00E9451
:10098000590266277727CB01681979098A099B09DB
:100990004AE00E94D20183E791E00E94C501609184
:1009A000000170910101072E000C880B990B0E9429
:1009B0005B069B01AC01C701B6010E940B0718162C
:1009C0000CF0ACC060E08CE00E940B0161E08AE0BA
:1009D0000E940B0160E08BE00E940B0164E670E076
:1009E00080E090E00E948F01209709F453CF0E948D
:1009F000000050CF46015701E894B7F82FEF3FEFC2
:100A00004FE75FE7C501B4010E947D0781110DC06A
:100A10002FEF3FEF4FE75FE7C501B4010E942506C6
:100A200018161CF480E691E06DCF2FEF3FEF4FE7F3
:100A30005FE4C701B6010E940B0718161CF484E698
:100A400091E060CF2FEF3FEF4FE75FECC701B601BA
:100A50000E94250687FDF3CF20E030E0A901C70101
:100A6000B6010E94250687FF56C041E06DE283E88B
:100A700091E00E945902C701B60190582AE037ED73
:100A800043EA5BE30E94B9052B013C010E942A0660
:100A90004B015C010E9459069B01AC01C301B201EC
:100AA0000E94B8052B013C014AE0C501B4010E9437
:100AB000D20141E06EE283E891E00E94590220E019
:100AC00030E040E251E4C301B2010E9410072B0163
:100AD0003C010E942A064B01B12CA12C4AE0C50121
:100AE000B4010E94D201C501B4010E9459069B01C4
:100AF000AC01C301B2010E94B80520E030E040E241
:100B000051E40E9410070E942A0690E080E04AE02B
:100B10000E94D201F9CEC701B601B0CF61E08CE0EE
:100B20000E940B0161E08BE00E940B0160E08AE013
:100B300053CFE3E8F1E01382128286E091E09183E3
:100B4000808389E084838FEF858388E0868387E0D4
:100B5000878386E0808785E0818784E082871386AB
:100B6000148615861686178661E080E10C94B20221
:100B70005058BB27AA270E94D0050C94D1060E948A
:100B8000C30638F00E94CA0620F039F49F3F19F4DA
:100B900026F40C94C0060EF4E095E7FB0C94BA061C
:100BA000E92F0E94E20658F3BA1762077307840719
:100BB000950720F079F4A6F50C9404070EF4E0955F
:100BC0000B2EBA2FA02D0B01B90190010C01CA0107
:100BD000A0011124FF27591B99F0593F50F4503EB2
:100BE00068F11A16F040A22F232F342F4427585FA4
:100BF000F3CF469537952795A795F0405395C9F7BC
:100C00007EF41F16BA0B620B730B840BBAF0915073
:100C1000A1F0FF0FBB1F661F771F881FC2F70EC012
:100C2000BA0F621F731F841F48F4879577956795E5
:100C3000B795F7959E3F08F0B0CF9395880F08F0D1
:100C40009927EE0F9795879508950E94960608F4C8
:100C500081E008950E94EA0688F09F5798F0B92F26
:100C60009927B751B0F0E1F0660F771F881F991FE1
:100C70001AF0BA95C9F714C0B13091F00E94040778
:100C8000B1E008950C940407672F782F8827B85F88
:100C900039F0B93FCCF3869577956795B395D9F739
:100CA0003EF490958095709561957F4F8F4F9F4F43
:100CB0000895E89409C097FB3EF49095809570954F
:100CC00061957F4F8F4F9F4F9923A9F0F92F96E998
:100CD000BB279395F695879577956795B795F1110D
:100CE000F8CFFAF4BB0F11F460FF1BC06F5F7F4FAA
:100CF0008F4F9F4F16C0882311F096E911C07723BC
:100D000021F09EE8872F762F05C0662371F096E8C4
:100D1000862F70E060E02AF09A95660F771F881F93
:100D2000DAF7880F9695879597F90895990F000837
:100D3000550FAA0BE0E8FEEF16161706E807F907AD
:100D4000C0F012161306E407F50798F0621B730B48
:100D5000840B950B39F40A2661F0232B242B252BC9
:100D600021F408950A2609F4A140A6958FEF811D6C
:100D7000811D089597F99F6780E870E060E008950D
:100D80009FEF80EC089500240A94161617061806A3
:100D90000906089500240A9412161306140605067F
:100DA0000895092E0394000C11F4882352F0BB0F10
:100DB00040F4BF2B11F460FF04C06F5F7F4F8F4F73
:100DC0009F4F089557FD9058440F551F59F05F3FAE
:100DD00071F04795880F97FB991F61F09F3F79F05D
:100DE00087950895121613061406551FF2CF4695DF
:100DF000F1DF08C0161617061806991FF1CF869561
:100E00007105610508940895E894BB276627772744
:100E1000CB0197F908950E94960608F48FEF089584
:100E20000E9423070C94D1060E94C30638F00E944A
:100E3000CA0620F0952311F00C94BA060C94C00653
:100E400011240C9405070E94E20670F3959FC1F3EC
:100E5000950F50E0551F629FF001729FBB27F00D68
:100E6000B11D639FAA27F00DB11DAA1F649F6627BD
:100E7000B00DA11D661F829F2227B00DA11D621F0C
:100E8000739FB00DA11D621F839FA00D611D221FC6
:100E9000749F3327A00D611D231F849F600D211DAA
:100EA000822F762F6A2F11249F5750409AF0F1F02D
:100EB00088234AF0EE0FFF1FBB1F661F771F881F96
:100EC00091505040A9F79E3F510580F00C94BA060E
:100ED0000C9405075F3FE4F3983ED4F3869577952D
:100EE0006795B795F795E7959F5FC1F7FE2B880F3C
:100EF000911D9695879597F908950E949606880BFF
:100F0000990B0895A1E21A2EAA1BBB1BFD010DC06F
:100F1000AA1FBB1FEE1FFF1FA217B307E407F507A9
:100F200020F0A21BB30BE40BF50B661F771F881F85
:100F3000991F1A9469F760957095809590959B011B
:100F4000AC01BD01CF010895EE0FFF1F0590F49194
:080F5000E02D0994F894FFCF95
:100F58001E000000000066038C00C201C101436F3F
:100F68006E74726F6C2064652054656D7065726173
:100F7800747572610054656D702E20436F6E7472C3
:100F88006F6C6C6572004D6F646966696361646F4C
:100F980020706F723A0045717569706F2032005485
:100FA800656D70657261747572653A006E616E0088
:100FB800696E66006F76660053657420506F696EBF
:0A0FC800743A0043C2A0C2A020004A
:107E0000112484B714BE81FFF0D085E080938100F7
:107E100082E08093C00088E18093C10086E0809377
:107E2000C20080E18093C4008EE0C9D0259A86E02C
:107E300020E33CEF91E0309385002093840096BBD3
:107E4000B09BFECF1D9AA8958150A9F7CC24DD24C4
:107E500088248394B5E0AB2EA1E19A2EF3E0BF2EE7
:107E6000A2D0813461F49FD0082FAFD0023811F036
:107E7000013811F484E001C083E08DD089C08234E0
:107E800011F484E103C0853419F485E0A6D080C0E4
:107E9000853579F488D0E82EFF2485D0082F10E0AE
:107EA000102F00270E291F29000F111F8ED06801E7
:107EB0006FC0863521F484E090D080E0DECF843638
:107EC00009F040C070D06FD0082F6DD080E0C81688
:107ED00080E7D80618F4F601B7BEE895C0E0D1E017
:107EE00062D089930C17E1F7F0E0CF16F0E7DF06D8
:107EF00018F0F601B7BEE89568D007B600FCFDCFD4
:107F0000A601A0E0B1E02C9130E011968C91119780
:107F100090E0982F8827822B932B1296FA010C0160
:107F200087BEE89511244E5F5F4FF1E0A038BF0790
:107F300051F7F601A7BEE89507B600FCFDCF97BE46
:107F4000E89526C08437B1F42ED02DD0F82E2BD052
:107F50003CD0F601EF2C8F010F5F1F4F84911BD097
:107F6000EA94F801C1F70894C11CD11CFA94CF0C13
:107F7000D11C0EC0853739F428D08EE10CD085E9AC
:107F80000AD08FE07ACF813511F488E018D01DD067
:107F900080E101D065CF982F8091C00085FFFCCF94
:107FA0009093C60008958091C00087FFFCCF809118
:107FB000C00084FD01C0A8958091C6000895E0E648
:107FC000F0E098E1908380830895EDDF803219F02E
:107FD00088E0F5DFFFCF84E1DECF1F93182FE3DFCA
:107FE0001150E9F7F2DF1F91089580E0E8DFEE27F6
:047FF000FF270994CA
:027FFE00040479
:0400000300007E007B
:00000001FF
