:100000000C945C000C9440020C9419020C9479003E
:100010000C9479000C9479000C9479000C9479007C
:100020000C9479000C9479000C9479000C9479006C
:100030000C9479000C9467020C9479000C9479006C
:100040000C94CF010C9479000C9479000C947900F5
:100050000C9479000C9479000C9479000C9479003C
:100060000C9479000C947900000000080002010053
:100070000003040700000000000000000000000072
:10008000250028002B0000000000240027002A0083
:10009000040404040404040402020202020203032E
:1000A0000303030301020408102040800102040836
:1000B000102001020408102011241FBECFEFD8E049
:1000C000DEBFCDBF11E0A0E0B1E0E8EBF0E102C09F
:1000D00005900D92A431B107D9F721E0A4E1B1E078
:1000E00001C01D92A733B207E1F70E948E020C9463
:1000F0005A080C94000090E0FC01EC55FF4F24914D
:1001000080579F4FFC018491882399F090E0880FDD
:10011000991FFC01EA57FF4FA591B491FC01E458E7
:10012000FF4F859194918FB7F894EC91E22BEC936B
:100130008FBF089590E0FC01E859FF4F2491FC0126
:10014000EC55FF4F3491FC01E057FF4FE491EE2353
:10015000C9F0222339F0233001F1A8F4213019F13C
:10016000223029F1F0E0EE0FFF1FE458FF4FA59178
:10017000B4918FB7F894EC91611126C030953E236D
:100180003C938FBF08952730A9F02830C9F0243060
:1001900049F7809180008F7D03C0809180008F7728
:1001A00080938000DFCF84B58F7784BDDBCF84B5AB
:1001B0008F7DFBCF8091B0008F778093B000D2CF3E
:1001C0008091B0008F7DF9CF3E2BDACF3FB7F89406
:1001D0008091190190911A01A0911B01B0911C010D
:1001E00026B5A89B05C02F3F19F00196A11DB11D92
:1001F0003FBFBA2FA92F982F8827BC01CD01620FCE
:10020000711D811D911D42E0660F771F881F991F88
:100210004A95D1F708950F931F930E94E600AB0112
:10022000BC0100911401109115012091160130912B
:10023000170180912F0190913001A0913101B0916F
:100240003201801B910BA20BB30B840F951FA61FCD
:10025000B71F80932F0190933001A0933101B09389
:10026000320140931401509315016093160170936D
:10027000170180912D0190912E01019690932E01EE
:1002800080932D011F910F91089508951F93CF938F
:10029000DF93182FC8E0D0E061E017FF60E089E04D
:1002A0000E949A00110F60E08AE00E949A0061E0CB
:1002B0008AE00E949A00219779F760E088E00E9426
:1002C0009A0061E088E0DF91CF911F910C949A0031
:1002D000809123019091240101968530910589F048
:1002E0009093240180932301809123019091240114
:1002F0008230910591F144F40197E1F08CEC86BDD8
:10030000089581E090E0ECCF83309105B9F1049736
:10031000A9F761E085E00E949A00E0912C010E2E81
:10032000000CFF0BEC5FFE4F80810E94460160E0F5
:1003300084E010C061E084E00E949A00E09129010D
:100340000E2E000CFF0BEC5FFE4F80810E944601D9
:1003500060E087E00E949A00D1CF61E087E00E94D0
:100360009A00E0912A010E2E000CFF0BEC5FFE4F6D
:1003700080810E94460160E086E0ECCF61E086E08B
:100380000E949A00E0912B010E2E000CFF0BEC5FF7
:10039000FE4F80810E94460160E085E0DBCF1F9226
:1003A0000F920FB60F9211242F933F938F939F9329
:1003B000AF93BF938091250190912601A0912701D1
:1003C000B09128013091180123E0230F2D3758F503
:1003D0000196A11DB11D20931801809325019093D2
:1003E0002601A0932701B0932801809119019091D3
:1003F0001A01A0911B01B0911C010196A11DB11D14
:100400008093190190931A01A0931B01B0931C01D2
:10041000BF91AF919F918F913F912F910F900FBE00
:100420000F901F90189526E8230F0296A11DB11D6D
:10043000D2CF1F920F920FB60F9211242F933F939A
:100440004F935F936F937F938F939F93AF93BF93DC
:10045000EF93FF93E0910201F09103010995FF9161
:10046000EF91BF91AF919F918F917F916F915F912C
:100470004F913F912F910F900FBE0F901F901895A5
:100480001F920F920FB60F9211242F933F934F9309
:100490005F936F937F938F939F93AF93BF93EF93EC
:1004A000FF93E0910001F09101010995FF91EF9117
:1004B000BF91AF919F918F917F916F915F914F917C
:1004C0003F912F910F900FBE0F901F9018951F9284
:1004D0000F920FB60F9211242F933F934F935F9378
:1004E0006F937F938F939F93AF93BF93EF93FF93FC
:1004F000E0912101F09122010995FF91EF91BF91C7
:10050000AF919F918F917F916F915F914F913F91AB
:100510002F910F900FBE0F901F901895CF93DF93E0
:1005200000D000D0CDB7DEB7789484B5826084BDAA
:1005300084B5816084BD85B5826085BD85B58160E7
:1005400085BD80916E00816080936E001092810065
:100550008091810082608093810080918100816020
:1005600080938100809180008160809380008091E1
:10057000B10084608093B1008091B000816080936D
:10058000B00080917A00846080937A0080917A0034
:10059000826080937A0080917A00816080937A00F3
:1005A00080917A00806880937A001092C1008BE07D
:1005B00091E0909301018093000180916900836034
:1005C00080936900E89A89E00E947B008AE00E949B
:1005D0007B0088E00E947B0087E00E947B0086E031
:1005E0000E947B0085E00E947B0084E00E947B00EB
:1005F00010922401109223011092800080E18093D8
:10060000810082E080931F018FB780932001F894CE
:1006100080E197E290931E0180931D0190938700E3
:1006200080938600809120018FBF80918100887F18
:10063000809381009091810020911F01922B9093D3
:10064000810088E691E0909322018093210181E06E
:1006500080936F0080918100822B809381000EE057
:1006600011E0CE0101964C0190E0A92E90E0B92E48
:100670002FB7F8948091250190912601A091270130
:10068000B09128012FBF4091330150913401609106
:100690003501709136016C017D01C41AD50AE60A54
:1006A000F70AB701A601443651056105710508F442
:1006B0005BC08093330190933401A0933501B093D4
:1006C000360160912F01709130018091310190913C
:1006D0003201E0902D01F0902E0110922F01109226
:1006E0003001109231011092320110922E011092BD
:1006F0002D010E9487049B01AC0160E074E284E755
:1007000099E40E94DF032B013C01B70190E080E0F7
:100710000E948704A30192010E94150520E030E0A9
:1007200040E752E40E9415050E9451047F936F93A5
:100730001F930F939F928F920E94820589818F70E1
:10074000809329018A818F7080932A018B818F7019
:1007500080932B018C818F7080932C010F900F90D0
:100760000F900F900F900F900E94E6002B013C011C
:1007700088ECC82ED12CE12CF12C0E94E6006419E3
:10078000750986099709683E734081059105A8F3AC
:1007900021E0C21AD108E108F10888EE480E83E092
:1007A000581E611C711CC114D104E104F10429F725
:1007B000A114B10409F45CCF0E94000059CF0E943B
:1007C000F3030C94DB040E94D40458F00E94CD047F
:1007D00040F029F45F3F29F00C94C40451110C94AB
:1007E0000F050C94CA040E94EC0468F39923B1F33A
:1007F000552391F3951B550BBB27AA276217730747
:10080000840738F09F5F5F4F220F331F441FAA1FDA
:10081000A9F335D00E2E3AF0E0E832D09150504096
:10082000E695001CCAF72BD0FE2F29D0660F771F44
:10083000881FBB1F261737074807AB07B0E809F02A
:10084000BB0B802DBF01FF2793585F4F3AF09E3FAF
:10085000510578F00C94C4040C940F055F3FE4F349
:10086000983ED4F3869577956795B795F7959F5FF2
:10087000C9F7880F911D9695879597F90895E1E03E
:10088000660F771F881FBB1F621773078407BA079D
:1008900020F0621B730B840BBA0BEE1F88F7E095F8
:1008A00008950E9458046894B1110C940F0508959E
:1008B0000E94F40488F09F5798F0B92F9927B751F8
:1008C000B0F0E1F0660F771F881F991F1AF0BA95F4
:1008D000C9F714C0B13091F00E940E05B1E008953F
:1008E0000C940E05672F782F8827B85F39F0B93F31
:1008F000CCF3869577956795B395D9F73EF49095A7
:100900008095709561957F4F8F4F9F4F0895E89424
:1009100009C097FB3EF490958095709561957F4F47
:100920008F4F9F4F9923A9F0F92F96E9BB279395F5
:10093000F695879577956795B795F111F8CFFAF405
:10094000BB0F11F460FF1BC06F5F7F4F8F4F9F4F36
:1009500016C0882311F096E911C0772321F09EE894
:10096000872F762F05C0662371F096E8862F70E0FA
:1009700060E02AF09A95660F771F881FDAF7880FD4
:100980009695879597F9089597F99F6780E870E0A5
:1009900060E008959FEF80EC089500240A941616F5
:1009A000170618060906089500240A94121613065D
:1009B000140605060895092E0394000C11F48823EB
:1009C00052F0BB0F40F4BF2B11F460FF04C06F5F07
:1009D0007F4F8F4F9F4F089557FD9058440F551FDD
:1009E00059F05F3F71F04795880F97FB991F61F0B1
:1009F0009F3F79F087950895121613061406551F28
:100A0000F2CF4695F1DF08C0161617061806991F93
:100A1000F1CF86957105610508940895E894BB2788
:100A200066277727CB0197F908950E9428050C9433
:100A3000DB040E94CD0438F00E94D40420F09523FA
:100A400011F00C94C4040C94CA0411240C940F05E6
:100A50000E94EC0470F3959FC1F3950F50E0551F71
:100A6000629FF001729FBB27F00DB11D639FAA2703
:100A7000F00DB11DAA1F649F6627B00DA11D661F52
:100A8000829F2227B00DA11D621F739FB00DA11D73
:100A9000621F839FA00D611D221F749F3327A00D2D
:100AA000611D231F849F600D211D822F762F6A2FC9
:100AB00011249F5750409AF0F1F088234AF0EE0F2E
:100AC000FF1FBB1F661F771F881F91505040A9F75B
:100AD0009E3F510580F00C94C4040C940F055F3FB9
:100AE000E4F3983ED4F3869577956795B795F79597
:100AF000E7959F5FC1F7FE2B880F911D969587950F
:100B000097F90895AEE0B0E0E8E8F5E00C9431081C
:100B10000D891E8986E08C831A8309838FEF9FE7F6
:100B20009E838D83AE01475E5F4F6F89788DCE01C6
:100B300001960E94A5052F813885020F131FF80129
:100B400010822E96E4E00C944D08ABE0B0E0EBEAA6
:100B5000F5E00C9423087C013B018A01FC0117821B
:100B60001682838181FFC8C1CE0101965C01F70125
:100B70009381F30193FD859193FF81913F01882338
:100B800009F453C1853239F493FD859193FF819126
:100B90003F01853229F4B70190E00E949507E7CF25
:100BA000912C212C312CFFE1F31538F08B3211F10F
:100BB00090F4803209F1833229F137FC3CC020EDFA
:100BC000280F2A3050F536FE20C08AE0989E200D6E
:100BD0001124922E06C08D3291F0803371F7689403
:100BE00030F8F30193FD859193FF81913F018111CD
:100BF000DACF21C0689431F8689432F8F2CF689463
:100C000033F8EFCF689434F8ECCFEAE02E9E200D55
:100C10001124222E689435F8E4CF8E3229F436FC64
:100C200004C1689436F8DDCF8C3619F4689437F82F
:100C3000D8CF8836B1F2982F9F7D95549330E0F04D
:100C40008336A1F18337C1F1833509F063C02801F0
:100C5000F2E04F0E511CF801C080D180692D70E088
:100C600036FC02C06FEF7FEFC6010E947F074C0188
:100C7000689437F882010AC00C5F1F4FFFE3F983C5
:100C800088248394912C6501E89437F833FE2DC0B5
:100C9000522C8114910471F5552009F468CFB701E5
:100CA00080E290E00E9495075A94F6CFF801808187
:100CB00089830E5F1F4FE4CF2801F2E04F0E511CD5
:100CC000F801C080D180692D70E036FC02C06FEF62
:100CD0007FEFC6010E948A074C018201D5CFB70180
:100CE00080E290E00E9495072A942814190409F0E4
:100CF000B0F7CECFF60137FC859137FE81916F01B9
:100D0000B70190E00E94950751105A94F1E08F1AB4
:100D10009108BFCF843619F0893609F077C0F80101
:100D200037FE6BC060817181828193810C5F1F4FA0
:100D3000F32DFF763F2E97FF09C090958095709513
:100D400061957F4F8F4F9F4F689437F82AE030E0CE
:100D5000A5010E94C507C82ECA188C2C432C36FE4C
:100D60000CC0E89440F8C91440F434FE05C032FCCD
:100D700003C0F32DFE7E4F2E892C44FE95C0FE014C
:100D8000EC0DF11D8081803309F087C0242D297E70
:100D9000422E842D8870582E43FC95C040FE8FC093
:100DA0009C2C821418F42C0C922C981844FE91C0A0
:100DB000B70180E390E00E94950742FE09C088E7F2
:100DC00090E041FE02C088E590E0B7010E949507DF
:100DD000C91408F48AC0CA94D12C9FEFC91AD90A41
:100DE000CA0CDB1CF60182916F01B70190E00E94F2
:100DF0009507AC14BD04B1F74FCF60817181072E08
:100E0000000C880B990B0E5F1F4F92CFD32CE894E8
:100E1000D4F82AE030E0853739F1232D297FD22E0E
:100E20008F3601F148F48835A9F0F7018681978162
:100E30002B96E2E10C943F08803749F08837A9F7F8
:100E4000D4FE02C06894D2F820E130E00DC068946E
:100E5000D4F8F6CF34FE03C0822F8660D82E20E16E
:100E600032E002C028E030E0F801D7FE0FC0608118
:100E70007181828193810C5F1F4FA5010E94C5077C
:100E8000C82ECA183D2CE89437F867CF608171816D
:100E900090E080E00E5F1F4FF0CF42FC02C08394D1
:100EA00078CF8394839475CF842D867809F471CF9D
:100EB000F6CFB70180E290E00E94950783948214F8
:100EC000C0F3512C73CF522C5818821408F46ECFF3
:100ED000F8CF842D867809F47BCF8BE241FE80E247
:100EE00047FC8DE2B70190E071CFB70180E390E05D
:100EF0000E9495079A946CCF8FEF9FEF99CFFC01DA
:100F00000590615070400110D8F7809590958E0F34
:100F10009F1F0895FC016150704001900110D8F7A7
:100F2000809590958E0F9F1F08950F931F93CF93D9
:100F3000DF93182F092FEB018B8181FD09C01FEF73
:100F40000FEF812F902FDF91CF911F910F91089577
:100F500082FF14C02E813F818C819D812817390723
:100F60003CF4E881F981CF0101969983888310834D
:100F70008E819F8101969F838E83E3CFE885F985DB
:100F8000812F0995892BA1F3DACFFA01AA272830FE
:100F900051F1203181F1E8946F936E7F6E5F7F4F46
:100FA0008F4F9F4FAF4FB1E03ED0B4E03CD0670FC2
:100FB000781F891F9A1FA11D680F791F8A1F911D15
:100FC000A11D6A0F711D811D911DA11D20D009F465
:100FD00068943F912AE0269F11243019305D3193A7
:100FE000DEF6CF010895462F4770405D4193B3E090
:100FF0000FD0C9F7F6CF462F4F70405D4A3318F037
:10100000495D31FD4052419302D0A9F7EACFB4E0E7
:10101000A6959795879577956795BA95C9F700979F
:101020006105710508959B01AC010A2E0694579540
:10103000479537952795BA95C9F7620F731F841F97
:10104000951FA01D08952F923F924F925F926F922D
:101050007F928F929F92AF92BF92CF92DF92EF9248
:10106000FF920F931F93CF93DF93CDB7DEB7CA1BC9
:10107000DB0B0FB6F894DEBF0FBECDBF09942A88F4
:10108000398848885F846E847D848C849B84AA849C
:10109000B984C884DF80EE80FD800C811B81AA8129
:1010A000B981CE0FD11D0FB6F894DEBF0FBECDBFF4
:0810B000ED010895F894FFCF53
:1010B800450145013F065B4F666D7D077F6F253013
:0410C800346400008C
:107E0000112484B714BE81FFF0D085E080938100F7
:107E100082E08093C00088E18093C10086E0809377
:107E2000C20080E18093C4008EE0C9D0259A86E02C
:107E300020E33CEF91E0309385002093840096BBD3
:107E4000B09BFECF1D9AA8958150A9F7CC24DD24C4
:107E500088248394B5E0AB2EA1E19A2EF3E0BF2EE7
:107E6000A2D0813461F49FD0082FAFD0023811F036
:107E7000013811F484E001C083E08DD089C08234E0
:107E800011F484E103C0853419F485E0A6D080C0E4
:107E9000853579F488D0E82EFF2485D0082F10E0AE
:107EA000102F00270E291F29000F111F8ED06801E7
:107EB0006FC0863521F484E090D080E0DECF843638
:107EC00009F040C070D06FD0082F6DD080E0C81688
:107ED00080E7D80618F4F601B7BEE895C0E0D1E017
:107EE00062D089930C17E1F7F0E0CF16F0E7DF06D8
:107EF00018F0F601B7BEE89568D007B600FCFDCFD4
:107F0000A601A0E0B1E02C9130E011968C91119780
:107F100090E0982F8827822B932B1296FA010C0160
:107F200087BEE89511244E5F5F4FF1E0A038BF0790
:107F300051F7F601A7BEE89507B600FCFDCF97BE46
:107F4000E89526C08437B1F42ED02DD0F82E2BD052
:107F50003CD0F601EF2C8F010F5F1F4F84911BD097
:107F6000EA94F801C1F70894C11CD11CFA94CF0C13
:107F7000D11C0EC0853739F428D08EE10CD085E9AC
:107F80000AD08FE07ACF813511F488E018D01DD067
:107F900080E101D065CF982F8091C00085FFFCCF94
:107FA0009093C60008958091C00087FFFCCF809118
:107FB000C00084FD01C0A8958091C6000895E0E648
:107FC000F0E098E1908380830895EDDF803219F02E
:107FD00088E0F5DFFFCF84E1DECF1F93182FE3DFCA
:107FE0001150E9F7F2DF1F91089580E0E8DFEE27F6
:047FF000FF270994CA
:027FFE00040479
:0400000300007E007B
:00000001FF
